{
  "contractName": "FlightSuretyData",
  "abi": [
    {
      "inputs": [],
      "payable": false,
      "stateMutability": "nonpayable",
      "type": "constructor"
    },
    {
      "payable": true,
      "stateMutability": "payable",
      "type": "fallback"
    },
    {
      "constant": true,
      "inputs": [],
      "name": "isOperational",
      "outputs": [
        {
          "name": "",
          "type": "bool"
        }
      ],
      "payable": false,
      "stateMutability": "view",
      "type": "function"
    },
    {
      "constant": false,
      "inputs": [
        {
          "name": "mode",
          "type": "bool"
        }
      ],
      "name": "setOperatingStatus",
      "outputs": [],
      "payable": false,
      "stateMutability": "nonpayable",
      "type": "function"
    },
    {
      "constant": false,
      "inputs": [
        {
          "name": "contractAddress",
          "type": "address"
        }
      ],
      "name": "authorizeContract",
      "outputs": [],
      "payable": false,
      "stateMutability": "nonpayable",
      "type": "function"
    },
    {
      "constant": false,
      "inputs": [
        {
          "name": "contractAddress",
          "type": "address"
        }
      ],
      "name": "deauthorizeContract",
      "outputs": [],
      "payable": false,
      "stateMutability": "nonpayable",
      "type": "function"
    },
    {
      "constant": false,
      "inputs": [
        {
          "name": "_NewAirlineAddress",
          "type": "address"
        }
      ],
      "name": "registerAirline",
      "outputs": [],
      "payable": false,
      "stateMutability": "nonpayable",
      "type": "function"
    },
    {
      "constant": false,
      "inputs": [
        {
          "name": "_AirlineAddress",
          "type": "address"
        },
        {
          "name": "state",
          "type": "uint256"
        }
      ],
      "name": "ChangeAirlineState",
      "outputs": [],
      "payable": false,
      "stateMutability": "nonpayable",
      "type": "function"
    },
    {
      "constant": false,
      "inputs": [
        {
          "name": "_AirlineAddress",
          "type": "address"
        },
        {
          "name": "_Name",
          "type": "string"
        }
      ],
      "name": "ChangeAirlineName",
      "outputs": [],
      "payable": false,
      "stateMutability": "nonpayable",
      "type": "function"
    },
    {
      "constant": false,
      "inputs": [
        {
          "name": "_Address",
          "type": "address"
        },
        {
          "name": "value",
          "type": "uint256"
        }
      ],
      "name": "AddCredit",
      "outputs": [],
      "payable": false,
      "stateMutability": "nonpayable",
      "type": "function"
    },
    {
      "constant": false,
      "inputs": [
        {
          "name": "_Address",
          "type": "address"
        },
        {
          "name": "value",
          "type": "uint256"
        }
      ],
      "name": "SubCredit",
      "outputs": [],
      "payable": false,
      "stateMutability": "nonpayable",
      "type": "function"
    },
    {
      "constant": true,
      "inputs": [
        {
          "name": "_Address",
          "type": "address"
        }
      ],
      "name": "GetCredit",
      "outputs": [
        {
          "name": "value",
          "type": "uint256"
        }
      ],
      "payable": false,
      "stateMutability": "view",
      "type": "function"
    },
    {
      "constant": true,
      "inputs": [
        {
          "name": "AirlineAddress",
          "type": "address"
        }
      ],
      "name": "GetAirlineState",
      "outputs": [
        {
          "name": "State",
          "type": "uint256"
        }
      ],
      "payable": false,
      "stateMutability": "view",
      "type": "function"
    },
    {
      "constant": true,
      "inputs": [],
      "name": "GetAirlineCount",
      "outputs": [
        {
          "name": "count",
          "type": "uint256"
        }
      ],
      "payable": false,
      "stateMutability": "view",
      "type": "function"
    },
    {
      "constant": false,
      "inputs": [],
      "name": "buy",
      "outputs": [],
      "payable": true,
      "stateMutability": "payable",
      "type": "function"
    },
    {
      "constant": true,
      "inputs": [],
      "name": "creditInsurees",
      "outputs": [],
      "payable": false,
      "stateMutability": "pure",
      "type": "function"
    },
    {
      "constant": true,
      "inputs": [],
      "name": "pay",
      "outputs": [],
      "payable": false,
      "stateMutability": "pure",
      "type": "function"
    },
    {
      "constant": false,
      "inputs": [],
      "name": "fund",
      "outputs": [],
      "payable": true,
      "stateMutability": "payable",
      "type": "function"
    }
  ],
  "bytecode": "0x60806040526001600260006101000a81548160ff02191690831515021790555060006007553480156200003157600080fd5b506200003c62000260565b336000806101000a81548173ffffffffffffffffffffffffffffffffffffffff021916908373ffffffffffffffffffffffffffffffffffffffff16021790555060018060008060009054906101000a900473ffffffffffffffffffffffffffffffffffffffff1673ffffffffffffffffffffffffffffffffffffffff1673ffffffffffffffffffffffffffffffffffffffff1681526020019081526020016000208190555033816040019073ffffffffffffffffffffffffffffffffffffffff16908173ffffffffffffffffffffffffffffffffffffffff16815250506040805190810160405280600281526020017f41310000000000000000000000000000000000000000000000000000000000008152508160200181905250600281600001818152505080600360003373ffffffffffffffffffffffffffffffffffffffff1673ffffffffffffffffffffffffffffffffffffffff168152602001908152602001600020600082015181600001556020820151816001019080519060200190620001ca92919062000298565b5060408201518160020160006101000a81548173ffffffffffffffffffffffffffffffffffffffff021916908373ffffffffffffffffffffffffffffffffffffffff1602179055509050506200023b6001600754620002436401000000000262000b22179091906401000000009004565b505062000347565b600081830190508281101515156200025757fe5b80905092915050565b6060604051908101604052806000815260200160608152602001600073ffffffffffffffffffffffffffffffffffffffff1681525090565b828054600181600116156101000203166002900490600052602060002090601f016020900481019282601f10620002db57805160ff19168380011785556200030c565b828001600101855582156200030c579182015b828111156200030b578251825591602001919060010190620002ee565b5b5090506200031b91906200031f565b5090565b6200034491905b808211156200034057600081600090555060010162000326565b5090565b90565b610ce080620003576000396000f3006080604052600436106100e6576000357c0100000000000000000000000000000000000000000000000000000000900463ffffffff16806304f3a97a146100f0578063110466ed1461013d5780631b9265b81461016c57806336cee4841461018357806367561d931461019a5780636e861c0e146101dd57806371467d5f1461022057806387fc1b25146102775780639e019a16146102c4578063a6f2ae3a1461031b578063ac3dcbcf14610325578063b60d428814610380578063bdfd98771461038a578063be1ebd8e146103cd578063cca2e10c146103f8578063cd905dff14610445575b6100ee610474565b005b3480156100fc57600080fd5b5061013b600480360381019080803573ffffffffffffffffffffffffffffffffffffffff16906020019092919080359060200190929190505050610476565b005b34801561014957600080fd5b5061016a6004803603810190808035151590602001909291905050506104c1565b005b34801561017857600080fd5b506101816105a2565b005b34801561018f57600080fd5b506101986105a4565b005b3480156101a657600080fd5b506101db600480360381019080803573ffffffffffffffffffffffffffffffffffffffff1690602001909291905050506105a6565b005b3480156101e957600080fd5b5061021e600480360381019080803573ffffffffffffffffffffffffffffffffffffffff1690602001909291905050506106b1565b005b34801561022c57600080fd5b50610261600480360381019080803573ffffffffffffffffffffffffffffffffffffffff1690602001909291905050506107bb565b6040518082815260200191505060405180910390f35b34801561028357600080fd5b506102c2600480360381019080803573ffffffffffffffffffffffffffffffffffffffff16906020019092919080359060200190929190505050610807565b005b3480156102d057600080fd5b50610305600480360381019080803573ffffffffffffffffffffffffffffffffffffffff1690602001909291905050506108a6565b6040518082815260200191505060405180910390f35b6103236108f5565b005b34801561033157600080fd5b5061037e600480360381019080803573ffffffffffffffffffffffffffffffffffffffff1690602001909291908035906020019082018035906020019190919293919293905050506108f7565b005b610388610474565b005b34801561039657600080fd5b506103cb600480360381019080803573ffffffffffffffffffffffffffffffffffffffff16906020019092919050505061094e565b005b3480156103d957600080fd5b506103e2610a65565b6040518082815260200191505060405180910390f35b34801561040457600080fd5b50610443600480360381019080803573ffffffffffffffffffffffffffffffffffffffff16906020019092919080359060200190929190505050610a72565b005b34801561045157600080fd5b5061045a610b0b565b604051808215151515815260200191505060405180910390f35b565b80600360008473ffffffffffffffffffffffffffffffffffffffff1673ffffffffffffffffffffffffffffffffffffffff168152602001908152602001600020600001819055505050565b6000809054906101000a900473ffffffffffffffffffffffffffffffffffffffff1673ffffffffffffffffffffffffffffffffffffffff163373ffffffffffffffffffffffffffffffffffffffff16141515610585576040517f08c379a000000000000000000000000000000000000000000000000000000000815260040180806020018281038252601c8152602001807f43616c6c6572206973206e6f7420636f6e7472616374206f776e65720000000081525060200191505060405180910390fd5b80600260006101000a81548160ff02191690831515021790555050565b565b565b6000809054906101000a900473ffffffffffffffffffffffffffffffffffffffff1673ffffffffffffffffffffffffffffffffffffffff163373ffffffffffffffffffffffffffffffffffffffff1614151561066a576040517f08c379a000000000000000000000000000000000000000000000000000000000815260040180806020018281038252601c8152602001807f43616c6c6572206973206e6f7420636f6e7472616374206f776e65720000000081525060200191505060405180910390fd5b60018060008373ffffffffffffffffffffffffffffffffffffffff1673ffffffffffffffffffffffffffffffffffffffff1681526020019081526020016000208190555050565b6000809054906101000a900473ffffffffffffffffffffffffffffffffffffffff1673ffffffffffffffffffffffffffffffffffffffff163373ffffffffffffffffffffffffffffffffffffffff16141515610775576040517f08c379a000000000000000000000000000000000000000000000000000000000815260040180806020018281038252601c8152602001807f43616c6c6572206973206e6f7420636f6e7472616374206f776e65720000000081525060200191505060405180910390fd5b600160008273ffffffffffffffffffffffffffffffffffffffff1673ffffffffffffffffffffffffffffffffffffffff1681526020019081526020016000206000905550565b6000600460008373ffffffffffffffffffffffffffffffffffffffff1673ffffffffffffffffffffffffffffffffffffffff168152602001908152602001600020549050809050919050565b600061085b600460008573ffffffffffffffffffffffffffffffffffffffff1673ffffffffffffffffffffffffffffffffffffffff1681526020019081526020016000205483610b2290919063ffffffff16565b905080600460008573ffffffffffffffffffffffffffffffffffffffff1673ffffffffffffffffffffffffffffffffffffffff16815260200190815260200160002081905550505050565b6000600360008373ffffffffffffffffffffffffffffffffffffffff1673ffffffffffffffffffffffffffffffffffffffff168152602001908152602001600020600001549050809050919050565b565b8181600360008673ffffffffffffffffffffffffffffffffffffffff1673ffffffffffffffffffffffffffffffffffffffff1681526020019081526020016000206001019190610948929190610b57565b50505050565b610956610bd7565b81816040019073ffffffffffffffffffffffffffffffffffffffff16908173ffffffffffffffffffffffffffffffffffffffff1681525050600181600001818152505080600360008473ffffffffffffffffffffffffffffffffffffffff1673ffffffffffffffffffffffffffffffffffffffff1681526020019081526020016000206000820151816000015560208201518160010190805190602001906109ff929190610c0f565b5060408201518160020160006101000a81548173ffffffffffffffffffffffffffffffffffffffff021916908373ffffffffffffffffffffffffffffffffffffffff160217905550905050610a606001600754610b2290919063ffffffff16565b505050565b6000600754905080905090565b610ac481600460008573ffffffffffffffffffffffffffffffffffffffff1673ffffffffffffffffffffffffffffffffffffffff16815260200190815260200160002054610b3e90919063ffffffff16565b600460008473ffffffffffffffffffffffffffffffffffffffff1673ffffffffffffffffffffffffffffffffffffffff168152602001908152602001600020819055505050565b6000600260009054906101000a900460ff16905090565b60008183019050828110151515610b3557fe5b80905092915050565b6000828211151515610b4c57fe5b818303905092915050565b828054600181600116156101000203166002900490600052602060002090601f016020900481019282601f10610b9857803560ff1916838001178555610bc6565b82800160010185558215610bc6579182015b82811115610bc5578235825591602001919060010190610baa565b5b509050610bd39190610c8f565b5090565b6060604051908101604052806000815260200160608152602001600073ffffffffffffffffffffffffffffffffffffffff1681525090565b828054600181600116156101000203166002900490600052602060002090601f016020900481019282601f10610c5057805160ff1916838001178555610c7e565b82800160010185558215610c7e579182015b82811115610c7d578251825591602001919060010190610c62565b5b509050610c8b9190610c8f565b5090565b610cb191905b80821115610cad576000816000905550600101610c95565b5090565b905600a165627a7a72305820e81d89dbab473d10672022b6606a3fb05221dd0eb335fc0fd9c46cbf6e505bf80029",
  "source": "pragma solidity ^ 0.4 .24;\n\nimport \"../node_modules/openzeppelin-solidity/contracts/math/SafeMath.sol\";\n\ncontract FlightSuretyData {\n    using SafeMath\n    for uint256;\n\n    /********************************************************************************************/\n    /*                                       DATA VARIABLES                                     */\n    /********************************************************************************************/\n\n    address private contractOwner; // Account used to deploy contract\n    mapping(address => uint256) private authorizedAddresses;\n    bool private operational = true; // Blocks all state changes throughout the contract if false\n\n    struct AirlineStruct {\n        uint256 State;\n        string Name;\n        address Address;\n    }\n    mapping(address => AirlineStruct) private Airlines;\n    mapping(address => uint256) private Credit;\n    mapping(address => uint256) private InsuranceCredit;\n    mapping(address => uint256) private AirlineCredit;\n    uint256 AirlineCount = 0;\n\n    /********************************************************************************************/\n    /*                                       EVENT DEFINITIONS                                  */\n    /********************************************************************************************/\n\n\n    /**\n     * @dev Constructor\n     *      The deploying account becomes contractOwner\n     */\n    constructor\n        ()\n    public {\n        contractOwner = msg.sender;\n        authorizedAddresses[contractOwner] = 1;\n        AirlineStruct memory NewAirline;\n        NewAirline.Address = msg.sender;\n        NewAirline.Name = \"A1\";\n        NewAirline.State = 2;\n        Airlines[msg.sender] = NewAirline;\n        AirlineCount.add(1);\n    }\n\n    /********************************************************************************************/\n    /*                                       FUNCTION MODIFIERS                                 */\n    /********************************************************************************************/\n\n    // Modifiers help avoid duplication of code. They are typically used to validate something\n    // before a function is allowed to be executed.\n\n    /**\n     * @dev Modifier that requires the \"operational\" boolean variable to be \"true\"\n     *      This is used on all state changing functions to pause the contract in \n     *      the event there is an issue that needs to be fixed\n     */\n    modifier requireIsOperational() {\n        require(operational, \"Contract is currently not operational\");\n        _; // All modifiers require an \"_\" which indicates where the function body will be added\n    }\n\n    /**\n     * @dev Modifier that requires the \"ContractOwner\" account to be the function caller\n     */\n    modifier requireContractOwner() {\n        require(msg.sender == contractOwner, \"Caller is not contract owner\");\n        _;\n    }\n\n\n    modifier requireIsCallerAuthorized() {\n        require(authorizedAddresses[msg.sender] == 1, \"Caller is not contract owner\");\n        _;\n    }\n    /********************************************************************************************/\n    /*                                       UTILITY FUNCTIONS                                  */\n    /********************************************************************************************/\n    /**\n     * @dev Get operating status of contract\n     *\n     * @return A bool that is the current operating status\n     */\n    function isOperational()\n    public\n    view\n    returns(bool) {\n        return operational;\n    }\n\n\n    /**\n     * @dev Sets contract operations on/off\n     *\n     * When operational mode is disabled, all write transactions except for this one will fail\n     */\n    function setOperatingStatus(\n        bool mode\n    )\n    external\n    requireContractOwner {\n        operational = mode;\n    }\n\n    function authorizeContract(address contractAddress)\n    external\n    requireContractOwner {\n        authorizedAddresses[contractAddress] = 1;\n    }\n\n    function deauthorizeContract(address contractAddress)\n    external\n    requireContractOwner {\n        delete authorizedAddresses[contractAddress];\n    }\n\n    /********************************************************************************************/\n    /*                                     SMART CONTRACT FUNCTIONS                             */\n    /********************************************************************************************/\n\n    /**\n     * @dev Add an airline to the registration queue\n     *      Can only be called from FlightSuretyApp contract\n     *\n     */\n    function registerAirline(address _NewAirlineAddress)\n    external {\n        AirlineStruct memory NewAirline;\n        NewAirline.Address = _NewAirlineAddress;\n        NewAirline.State = 1;\n        Airlines[_NewAirlineAddress] = NewAirline;\n        AirlineCount.add(1);\n\n    }\n\n    function ChangeAirlineState(address _AirlineAddress, uint256 state) external \n    {\n        Airlines[_AirlineAddress].State = state;\n    }\n    function ChangeAirlineName(address _AirlineAddress, string _Name) external \n    {\n        Airlines[_AirlineAddress].Name = _Name;\n    }\n\n    function AddCredit(address _Address, uint256 value) external \n    {\n        uint256 newCredit = value.add(Credit[_Address]);\n        Credit[_Address] = newCredit;\n    }\n    function SubCredit(address _Address, uint256 value) external \n    {\n        Credit[_Address] = Credit[_Address].sub(value);\n    }\n    function GetCredit(address _Address) view external \n    returns(uint256 value)\n    {\n        value = Credit[_Address];\n        return value;\n    }\n\n    function GetAirlineState(address AirlineAddress) view external\n    returns(uint256 State) \n    {\n\n        State = Airlines[AirlineAddress].State;\n        return State;\n    }\n    function GetAirlineCount() view external\n    returns(uint256 count) {\n\n        count = AirlineCount;\n        return count;\n    }\n\n    /**\n     * @dev Buy insurance for a flight\n     *\n     */\n    function buy()\n    external\n    payable {\n\n    }\n\n    /**\n     *  @dev Credits payouts to insurees\n     */\n    function creditInsurees()\n    external\n    pure {}\n\n\n    /**\n     *  @dev Transfers eligible payout funds to insuree\n     *\n     */\n    function pay()\n    external\n    pure {}\n\n    /**\n     * @dev Initial funding for the insurance. Unless there are too many delayed flights\n     *      resulting in insurance payouts, the contract should be self-sustaining\n     *\n     */\n    function fund()\n    public\n    payable {}\n\n    function getFlightKey(\n        address airline,\n        string memory flight,\n        uint256 timestamp\n    )\n    pure\n    internal\n    returns(bytes32) {\n        return keccak256(abi.encodePacked(airline, flight, timestamp));\n    }\n\n    /**\n     * @dev Fallback function for funding smart contract.\n     *\n     */\n    function ()\n    external\n    payable {\n        fund();\n    }\n\n\n}",
  "sourcePath": "/home/ubunto/Desktop/Udacity Blockchain/FlightSurety-master/contracts/FlightSuretyData.sol",
  "compiler": {
    "name": "solc",
    "version": "0.4.25+commit.59dbf8f1.Emscripten.clang"
  },
  "schemaVersion": "2.0.2",
  "updatedAt": "2019-04-10T21:00:51.479Z"
}